:0200000270008C
:108000000000022019820700018207000382070096
:1080100005820700078207000982070000000000B0
:1080200000000000000000000000000089D30700ED
:108030000D820700000000000F8207001182070078
:1080400013820700138207001382070013820700C0
:1080500013820700138207001382070013820700B0
:1080600013820700138207001382070013820700A0
:108070001382070013820700138207001382070090
:10808000D9960700138207001382070013820700A6
:10809000138207001382070035D1070013820700FF
:1080A0001382070013820700138207001382070060
:1080B0001382070013820700000000000000000088
:1080C0001382070013820700138207001382070040
:1080D0001382070013820700138207001382070030
:1080E00013820700000000000000000000000000F4
:1080F0000000000013820700000000001382070048
:10810000000000000000000000000000000000006F
:10811000000000000000000000000000000000005F
:10812000000000000000000000000000000000004F
:10813000000000000000000000000000000000003F
:10814000000000000000000000000000000000002F
:10815000000000000000000000000000000000001F
:10816000000000000000000000000000000000000F
:1081700000000000000000000000000000000000FF
:1081800000000000000000000000000000000000EF
:1081900000000000000000000000000000000000DF
:1081A00000000000000000000000000000000000CF
:1081B00000000000000000000000000000000000BF
:1081C00000000000000000000000000000000000AF
:1081D000000000000000000000000000000000009F
:1081E000000000000000000000000000000000008F
:1081F000000000000000000000000000000000007F
:10820000FEE7FEE7FEE7FEE7FEE7FEE7FEE7FEE746
:10821000FEE7FEE700F002B8FFF7FCBF0F484FF0A3
:108220000701884385460E4880470E48016841F49F
:1082300070010160BFF34F8FBFF36F8F00F01AB86A
:1082400009480A490A4A884207D0521A05D00378D9
:1082500001300B700131013AF9D170470000022062
:10826000B18E070088ED00E000D80700E82A002062
:10827000FC2A0020314932480A1A02D007229143D1
:108280008D46304930480A1A06D00722914381F3BF
:108290000988022282F314882C482D492D4A00F0C7
:1082A0003CF82D482D492E4A00F037F82D482E492C
:1082B0002E4A00F032F82E482E492F4A00F02DF8B1
:1082C0002E482F492F4A00F028F82F482F49304ACE
:1082D00000F023F82F483049304A00F01EF83048AB
:1082E0003049002200F024F82F483049002200F0E5
:1082F0001FF82F4A90471F481F49884205D002683F
:10830000043003B4904703BCF7E700208646EC46F0
:1083100000200021274A9047FEE7884207D0521AE2
:1083200005D0037801300B700131013AF9D1704763
:10833000884202D002700130FAE770470000022044
:1083400000F80120000002200000022048DD0700A4
:10835000FC2A0020402B0020B8830700B8830700C8
:10836000A8D7070048DD0700FC2A0020FC2A0020CF
:1083700014D8070014D8070014D8070014D8070031
:1083800014D8070014D8070014D8070014D8070021
:1083900045DD07008CDD0700402B0020402B00202E
:1083A000402B0020A4550020A4550020A4550020F7
:0883B000418207002984070047
:1083B800BFF34F8F0549064BCA6802F4E0621343C6
:1083C800CB60BFF34F8F00BFFDE700BF00ED00E0BB
:1083D8000400FA0508B507281BD8DFE800F00412E6
:1083E8001A1A1A041A04012000F07DF8002000F07F
:1083F80043F8012000F040F8BDE80840022000F0F2
:108408004FB8012000F04CF8BDE80840022000F009
:1084180033B808BD08B5FFF7CBFF08B5FFF7C8FFAD
:1084280008B5104804F0CEFF01F01CF94FF4805154
:10843800002000F033FF08B1FFF7BAFF0A48C0F583
:10844800FC2100F02BFF0028F6D1084804F0BAFF01
:10845800074800F039FE0028EED1064804F0B2FFC4
:10846800EAE700BF54D80700008007006ED807006D
:10847800DD8307007AD80700074B1B5C1F2B86BFDC
:10848800064903F01F034FF0A041012202FA03F34B
:10849800C1F80C35704700BF9FD807000003005093
:1084A800074B1B5C1F2B86BF064903F01F034FF0C9
:1084B800A041012202FA03F3C1F80835704700BF52
:1084C8009FD807000003005008B50020FFF7E8FF19
:1084D8000120FFF7E5FF0220FFF7E2FFBDE80840B3
:1084E8000320FFF7DDBFC20710B504460CD54FF0D7
:1084F800A0430322C3F83427C3F83827C3F83C271E
:10850800C3F84027FFF7E0FFA3070AD54FF0A043C1
:108518000C22C3F82C27C3F83027C3F86027C3F808
:10852800642710BD0023C0E902328B881A44B1F9D0
:10853800063002611A44C0E9001142610888003817
:1085480018BF012070474268118838B5034641B109
:1085580002F110014160118A29B9C2680168FFF768
:10856800E1FF002038BD907811891C6900F03005C2
:10857800302D13D1957C05F03005302D15D191881B
:10858800611A19610021908AB2F916200844196904
:1085980001441961114459610120E3E700F0F00436
:1085A800202C08D150894143EDE700F0C000802815
:1085B80008BF0421E7E700F0C000802808BF0421B5
:1085C800002DE0D1986801309860DCE770B5466806
:1085D80004460D4663681A88AA4204D19B7803F0C2
:1085E8000F03082B07D12046FFF7ADFF6368B3429E
:1085F800F0D1002070BD0120FCE743681A444260B6
:1086080011B101399A4201D10120704713F8010BC9
:1086180001F8010FF6E7836810B504460BB900208E
:1086280010BD0368012298470028F8D0A368013BD1
:10863800A360F5E72DE9F3410F460DF107018046E8
:10864800FFF7E9FF054620B90025284602B0BDE836
:10865800F0819DF907309DF80740002B13DA04F0EC
:108668007F0407260DF107014046FFF7D4FF0028D5
:10867800EAD09DF8072002F07F03B3401C4313069D
:1086880006F1070601D43C60DFE7232EEAD1DBE7D9
:1086980070B541688A7802F00F05082D86B0034648
:1086A8001FD103691C6800260CB906B070BD236889
:1086B80062689D68267329466846FFF733FF63683A
:1086C800049304F10C030593AB7803F0C003802BEB
:1086D80008BF231D684608BF0493FFF7D9FFA468A5
:1086E800E2E73F2A24D802F0300010280DD15A6959
:1086F80000201070072DCC6818690CD1014620465F
:1087080006B0BDE8704000F01FB89006F2D55B696E
:1087180000221A80C9E70A89214624B106B0BDE8BB
:10872800704004F0AFBE06B0BDE8704004F0DCBE97
:1087380002F0C0018029B8D10069002101609206C9
:1087480044BF5B691980B0E77FB50A4601466846B1
:10875800FFF7E8FE30B16846FFF79AFF6846FFF773
:10876800F2FEF7E707B05DF804FB000030B50446F9
:1087780085B01546A9B90268114B9A4211D0102D3F
:1087880006D82A4669462046FFF7F0FF05B030BDF7
:10879800102269462046FFF7E9FF0028F6D0103D71
:1087A800EDE7A368AB4201D20020EFE723682A4631
:1087B800204698470028F7D0A3685B1BA360E5E72D
:1087C800038607002DE9F3410F4601A980461646A6
:1087D800FFF730FFA0B1019C621C4FF0000504D2E6
:1087E800BB7803F0C003802B01D1284608E03B8901
:1087F8009342FAD3224631464046FFF7B7FF355534
:1088080002B0BDE8F08173B50D4601A906461446CD
:10881800FFF710FFB0B1019AB2F5803F12D2AB78E2
:1088280003F0C003802B02F102010BD02B898B428D
:1088380008D32146304621F8022B02B0BDE870402B
:10884800FFF794BF002002B070BD000010B5034CC4
:1088580082600022C0E90041C26010BD03860700A3
:108868002DE9F341002506460F46A8462C460DF192
:1088780007013046FFF7CFFEC0B19DF807C0A4F14D
:1088880020030CF07F02C4F1200102FA03F322FA5C
:1088980001F10B43A2401CF0800F45EA020543EAB0
:1088A800080804F1070404D1C7E9005802B0BDE87C
:1088B800F081462CDBD10020F8E737B50D46694634
:1088C8001446FFF7CDFF70B12B89082B0DD1DDE9D8
:1088D8000032C4E90032DDE90001914208BF984244
:1088E8000CBF0120002003B030BD042B03D1009B36
:1088F80023600022EFE7022B03D1009B23809BB269
:10890800F7E7012B04D1009B237003F0FF03F0E786
:108918000020E8E737B50D4669461446FFF7A0FF83
:1089280030B12B89082BDDE9001203D1C4E900120C
:1089380003B030BD042B4FEAE17009D121600B462A
:108948000246824208BF8B420CBF01200020EFE79D
:10895800022B03D10BB22380DA17F2E7012B02D1E5
:108968004BB22370F8E70020E2E7F7B51F46002373
:108978003B700D460B70136001A904461646FFF7BD
:1089880059FE38B9A36813B1002003B0F0BD012324
:108998003B70F9E7019C002CF9D0E30804F00704C8
:1089A80033602C70F1E713B50446052921D8DFE8B8
:1089B80001F0030F1720201E012201A92046FFF70E
:1089C800D5FE18B19DF90430002BF5DB02B010BDBF
:1089D80008220021204602B0BDE81040FFF7C6BEBD
:1089E80001A9FFF727FE0028F0D0019AF1E7042239
:1089F800EFE70020EAE773B50D4601A90446FFF743
:108A080019FE064618B90026304602B070BD94E833
:108A18000F0085E80F0001998A42F4D3A960A36882
:108A28005B1AA360F0E700002DE9F0435668B378BD
:108A380013F0C00489B007468C46154603D0402C75
:108A480069D000240CE003F00F02604903F0300302
:108A5800202B51F8228025D006D8E3B1102B17D04F
:108A6800204609B0BDE8F083302BF9D16B69318815
:108A78001980072A09D121463289286904F034FD72
:108A88006B682969D868FFF75FFE2A69696840E062
:108A98006B6901221A702A693146434609B0BDE85C
:108AA800F0431847BCF1020FD5F8149024D1042ADA
:108AB80022D804A9FFF79FFF04460028C1D0069BCF
:108AC8002BB16968B9F800304A899A4205D8059BE4
:108AD8007B60069B002BB4D1C2E708892A6903FB97
:108AE800002204A8C04728B1B9F800300133A9F81A
:108AF8000030E4E70446EAE7B9F8003072899A42A0
:108B08009FD931892A69581C03FB0122A9F8000062
:108B180031463846C1E7D2F81080464656F8043B3D
:108B280023B909B0BDE8F043FFF73DBF022914D1CE
:108B380004A9FFF760FF002883D0D8F800306968DF
:108B4800324604A89847044600283FF47AAF069BAB
:108B5800002BF2D1059B7B6082E7012926D00529ED
:108B68002CD000297FF46DAF0C460DF104090134B7
:108B78000B2C3FF466AF012249463846FFF7F6FD55
:108B880000283FF45EAF19F9013B002BEFDB104BD7
:108B9800049301ABCDE90534002307936968D8F83D
:108BA8000030324604A89847044659E7082201A92C
:108BB800FFF7DCFD08240028E9D142E704220DEB89
:108BC8000201FFF7D3FD0424F5E700BFA4D807008E
:108BD800038607002DE9F04790B00446002604A854
:108BE800CDE90266FFF79EFCA3683BBBDDE90534CF
:108BF80004A89D78FFF7A7FC0028F7D115F0300FDF
:108C080003D1059B1B8803B10134002C00F0B4800C
:108C1800630902A90022934240F0A78010AA02EB40
:108C2800830304F01F0453F8383CC4F120044FF0C8
:108C3800FF30E040C31A584258410DE00DF10303DC
:108C480001AA0DF102012046FFF78FFE38B99DF801
:108C58000330002BCAD1002010B0BDE8F087019F77
:108C680004A83946FFF7B2FC002857D1B7424CD3C5
:108C7800059D059A937803F00F03082B7ED004A86E
:108C8800FFF761FC059B9D42F3D14FF0FF36B742D9
:108C98009DF8029039D3089BD4F808801D68A36812
:108CA80085B39845A0D12B68D3F800A0BAF1000F7E
:108CB80008D04B463A4629462046D0470028CAD015
:108CC800AD68ECE7D3F808A0BAF800309F42F7D1B6
:108CD8006A6851460AA8FFF725FC6B680E9305F1F0
:108CE8000C030F939AF8023003F0C003802B04BFE3
:108CF8002B1D0E9301232B730AAA49462046FFF722
:108D080093FEDBE798457FF46FAF9DF8021020468D
:108D1800FFF749FE00287FF467AF9CE7059B9B7827
:108D280013F0300F0FD1069A3F2A0CD8510910AB17
:108D380003EB810102F01F020123934051F8382C04
:108D4800134341F8383CD4F80C809DF80250B8F130
:108D5800000F04D004AB2A4639462046C04704AA6F
:108D680029462046FFF760FED4E751F8040B01308E
:108D78007FF471AF01324EE701206DE7168886E770
:108D880070B50C460646154611462046FFF7DCFC32
:108D98002A4621463046BDE87040FFF71BBFF0B5B4
:108DA80085B0CF680C46694605461646FFF723FE90
:108DB80068B1E06858B1A37803F03003202B32463D
:108DC8003946684605D1FFF7DBFF019B6B6005B0AC
:108DD800F0BDFFF7FFFEF8E713B50C466946FFF74D
:108DE8003FFD60B1DDE900134A0842EAC372C907D2
:108DF8004FEA530344BFD243DB43C4E9002302B024
:108E080010BD37B50D4669461446FFF7E5FF70B14A
:108E18002B89082B0DD1DDE90032C4E90032DDE9E8
:108E28000001914208BF98420CBF0120002003B006
:108E380030BD042B03D1009B2360DA17EFE7022B28
:108E480003D1BDF900302380F7E7012B03D19DF949
:108E580000302370F1E70020E9E713B504220C463F
:108E68000DEB0201FFF782FC08B1019B236002B001
:108E780010BD1146FFF7F1BF13B508220C4669462D
:108E8800FFF774FC18B1DDE90023C4E9002302B040
:108E980010BD1146FFF7F0BF024AD2F80034002B8C
:108EA800FBD0704700E001404FF0805310B5D3F875
:108EB80030210D2A55D14FF080410022C1F80C21F4
:108EC800C1F81021C1F838254E4AD3F80404C2F875
:108ED8002005D3F80804C2F82405D3F80C04C2F816
:108EE8002805D3F81004C2F82C05D3F81404C2F8E6
:108EF8003005D3F81804C2F83405D3F81C04C2F8B6
:108F08004005D3F82004C2F84405D3F82404C2F875
:108F18004805D3F82804C2F84C05D3F82C04C2F845
:108F28005005D3F83004C2F85405D3F83404C2F815
:108F38006005D3F83804C2F86405D3F83C04C2F8D5
:108F48006805D3F84004C2F86C05D3F84434C2F875
:108F58007035D1F80034DB0744BF6FF00103C1F866
:108F68000034294AD2F8883043F47003C2F88830B4
:108F7800BFF34F8FBFF36F8F4FF08053D3F830217B
:108F88000D2A0ED1D3F83431022B02D81F4AD35CF4
:108F98003BB14FF01023D3F808224FF08043C3F8B9
:108FA80058254FF01023D3F80022002A03DBD3F80A
:108FB8000432002B22DA164901234FF01020C1F8A1
:108FC80004351224FFF768FFC0F80042FFF764FF7A
:108FD800C0F80442FFF760FF0023C1F80435FFF72B
:108FE8005BFFBFF34F8F08490A4BCA6802F4E0627F
:108FF8001343CB60BFF34F8F00BFFDE7064B074A13
:109008001A6010BD00C0004000ED00E0C8D807009D
:1090180000E001400400FA05FC2A00200090D0037B
:10902800008800F00100704741DF7047014B0122C2
:109038001A707047602F0020BFF34F8F0549064B09
:10904800CA6802F4E0621343CB60BFF34F8F00BFDE
:10905800FDE700BF00ED00E00400FA05024B0348FD
:1090680000221A7001F0D4BB602F00204190070045
:10907800042810B5044609D8022811D816D00D4B7B
:109088001B68B3B12046BDE810401847831F012B69
:10909800F5D8094B094800221A7001F0B9FBEEE730
:1090A80007494FF4701000F0B7F9E8E701F0FEFA4D
:1090B800E5E710BD642F0020602F002041900700D5
:1090C800659007000020704738B55D4B5D4A186011
:1090D8004FF0A0430020C3F8642701F0AFFB04461B
:1090E800002840F0A88000F065FA012800F09E8072
:1090F800022800F0A280002840F09D804FF08042B6
:10910800514CD2F80014256AC90333D54FF4803185
:10911800C2F80014012D3AD04FF4701400F0E6FAAA
:109128004A4A2021182002F047F908B1FFF775F9DB
:109138004FF08043D3F81C2502F0F902B12A02BF90
:10914800D3F81C2502F04E02C3F81C25FFF7BAFF1E
:10915800002870D120463E4900F05EF93D4800F0F5
:1091680069FC002867D100F0E7FA02F0A7F9FFF7D9
:109178005BFFF8E7D2F8201501F0F901A92934D1ED
:10918800D2F8201501F05601C2F82015C2E74FF4B5
:1091980040535A68304B9A4220D001F003FCA26930
:1091A80094F8A132012B2BD14FF0A043D3F81035FE
:1091B8009B01B1D54FF08043D3F81C3503F0F90378
:1091C800B12BA9D001F09CFB002834D1234B187097
:1091D800234801F01DFB00F04BF82CE094F86032B6
:1091E800626B012BD9D0002512E0012D94D14FF4E8
:1091F80040525168184A914209D001F0D3FBA26944
:109208000146184801F0A6FE0028CDD184E7626B1C
:1092180015484FF4805101F09DFE00283FF47CAFC3
:1092280001F0C0FBA269002DEAD1B9E70B4B0F484A
:109238001C7001F0EDFA032038BD4FF4A0246DE74F
:10924800642F00200C00030030470020402B002032
:109258006590070079900700DBE5B151602F002089
:1092680035900700D149002090490020419007001F
:1092780008B5074B4FF0FF32C3F88020C3F88021B0
:1092880001F030F8BDE808404FF4805000F028B8ED
:1092980000E100E080F308880847000070B5054643
:1092A800C1F30B00A8B9B5F5FE2F12D80B4E3268E2
:1092B800072A10D8130103F1804404F5F034013271
:1092C800C4F80058C4F804180221C4F80818326019
:1092D80070BD0720FCE70420FAE700BF682F0020D4
:1092E80010B504461448C0F5FE21FFF7D7FF08B1B2
:1092F800FFF793F801F056FB104B9B6903F6FF73D9
:1093080023F47F6323F00F0319180020FFF7C6FF2B
:1093180008B1FFF782F8EFF305830023D4E90001D1
:1093280083F3148883F3108883F3118883F31388F5
:10933800BDE81040FFF7AEBF0080070030470020AF
:1093480037B56FF07F42154C057BD4F804358A4257
:1093580028BF0A46891A13444A1E942A23F07F43D9
:1093680005F5A8729CBF963B9631416044F82230BF
:109378000B4B4FF4F86043F001039847094BAA00E0
:10938800134400221A601B680193019B4FF4803339
:10939800AB40C4F8043303B030BD00BF0040024006
:1093A800D0D80700404102401FB518490B7853BB7D
:1093B8004FF08043A024D3F81824D2035CBF0122C5
:1093C8009A60134B0022C3F80021D3F800010390E0
:1093D8000398C3F84021D3F8400102900298C3F8DB
:1093E8004421D3F84401019001980A4880F82443A5
:1093F800102444600220C3F8082501229A601A60EC
:10940800C3F804030A7004B010BD00BF6C2F00201D
:109418000040024000E100E070B50B4B1D682A7B5C
:109428004FF480339340094A0E46C2F80833044685
:1094380040B1FFF7B9FF2E6021462846BDE87040CD
:10944800FFF77EBF70BD00BF042B00200040024024
:1094580070B5074B1D6804460E46A860FFF7A4FFC9
:109468002E6021462846BDE87040FFF769BF00BF5F
:10947800002B0020014B01221A7070476D2F00202D
:1094880081422DE9F74F04460F46154604D10023C3
:10949800184603B0BDE8F08F3E1B360B02F6FF7886
:1094A80000F024F9082E28BF08263303DFF864B03B
:1094B80001934FEA1838002DE9D046452CBFC24623
:1094C800B2464FF000025146204634BFDDF8049002
:1094D800A94600F0D1FE03460028D9D109F10302BC
:1094E80022F003023946204600F0B8FE0346002861
:1094F800CED1DBF830304B44CBF8303001F08EF968
:10950800A8EB0A08A5EB09054C444F44034600287C
:10951800D1D0BDE73047002010B501F067FA114AF5
:10952800916C01F500535C680F4B9C4214D1D2E951
:109538000C32934213D0D21A02F6FF7222F47F62E1
:109548001944184422F00F02FFF79AFF034620B986
:10955800BDE8104001F062B90323184610BD00238E
:10956800FBE700BF30470020DBE5B15138B50F4BB2
:10957800DA6A5D6A9C6CAC2A10D15B6B1C44ED1AEC
:109588000B482A46214603F0DFFF68B100F0D4F803
:1095980029462046BDE8384000F086BE002CEFD1B1
:1095A80001F014FA0446EBE738BD00BF304700204D
:1095B8000080070070B5274CE36AAA2B43D005D872
:1095C800012B0CD0A52B3AD0002070BDAC2BFBD1C1
:1095D800FFF7A2FF002834D1FFF7C8FF31E0A56CE0
:1095E800666A01F0DFF9226B03469D4205EB020132
:1095F800104414BFB21A0022FFF742FF054660B9B3
:1096080001F0D0F92A46314601F0C0FFA36A98421A
:1096180003D10123C4E90703A66100250E4801F020
:10962800B7F90E4B0E4800221A7001F0F7F868B926
:1096380075B1236A012B14BF01200220C5E7FFF78B
:109648006BFF0125EAE7FFF791FFE6E70320BCE798
:109658000120BAE730470020544700206D2F002032
:109668007D94070010B50024D4F8F83F013304D1E5
:10967800084940F6F87001F069FED4F8FC3F013360
:1096880007D1BDE810404FF4FC2140F6FC7001F012
:109698005DBE10BD008007000A4AD2F800347BB1D5
:1096A80009480023D2F80815D940C90748BF03F56F
:1096B800C07103F1010348BF42F82100072BF1D123
:1096C800704700BF000001403546526EFFF7E4BF07
:1096D800054B002282B0C3F80021D3F80031019372
:1096E800019B02B0704700BF0000014038B50E4C26
:1096F8002378BBB90D4BD3F800248AB1D3F80455AD
:10970800FFF7CAFF40F61650A842B8BF28460849D6
:10971800A0F54860FFF79CFE064B4FF480321A60B4
:109728000123237038BD00BF6E2F002000000140C8
:10973800D596070000E100E0034BD3F800340BB1E5
:10974800FFF7AABF704700BF00000140034620B1E1
:1097580031B10020C1E90003704748F2105070474A
:1097680048F21350704730B1036848F240508B42BA
:1097780008BF0020704748F21050704728B148F2DF
:109788001150914208BF0020704748F210507047AE
:1097980070B506460C461D46FFF7D8FF50B9B37999
:1097A8004AB1AB420AD11146204600F0FCF808B98C
:1097B800044B236070BD48F21050FBE748F211508B
:1097C800F8E700BF7052464D2DE9F0470C460646B3
:1097D8000F492046DDE9088915461F46FFF7C3FFF4
:1097E800A0B963685A79494652004046FFF7C6FF58
:1097F80060B94DB1CDF820803B462A462146304617
:10980800BDE8F04700F0D7B848F21050BDE8F0873F
:109818007052464D10B5044638B149B10B684160E5
:10982800984708B9044B236010BD48F20150FBE784
:1098380048F21050F8E700BF6E524648F0B413469D
:1098480048B10768094EB7420AD161B12AB14368E5
:10985800F0BC5B68184748F201531846F0BC7047E3
:1098680048F20253F9E748F21053F6E76E524648B9
:10987800F0B460B107680C4EB7420CD171B14368BF
:109888001568DC68A5420CD3F0BC9B68184748F201
:109898000150F0BC704748F20250FAE748F2135002
:1098A800F7E748F21450F4E76E5246482DE9F041C4
:1098B8000446DDE9067815461E46FFF7ABFF60B99A
:1098C800324629462046FFF7B9FF30B942463946A5
:1098D8002046BDE8F041FFF7CBBFBDE8F0810000AE
:1098E800F8B50A4F0A4C0B4EE41B0123E408337009
:1098F8000025A54203D1022333700020F8BD57F894
:10990800353098470028F9D10135F2E7A8D7070084
:10991800A8D707006F2F002001390144814200D2E7
:10992800704703780A7800F8012B01F80139F5E748
:10993800013A02440139824200D2704711F8013FCE
:1099480002F80139F7E770B516460D46FFF7F0FF44
:109958003246A9193044BDE87040FFF7E9BF38B571
:109968000D460446FFF7D8FF29466019BDE8384080
:10997800FFF7D2BF13681F2B10B5144607D9002272
:10998800083002F07EFA08B92023236010BD48F29F
:109998001450FBE7083002F051BA083002F01EBA42
:1099A80043689B68184708B5436808305A79FFF739
:1099B800CAFF002008BD2DE9F0430C469BB00846BD
:1099C80098461746FFF7ECFFD4F8049099F805502D
:1099D800454528BF454606462A46394602A8FFF7A8
:1099E800A7FF99F8052022990AA8FFF7ACFF00966F
:1099F8000AAB2A4602A904F1080003F02DF9002851
:109A080048F2425018BF00201BB0BDE8F0830000A8
:109A1800831F012B10B5044602D8002000F0A0FFD8
:109A2800034B1B681BB12046BDE81040184710BD0A
:109A3800702F002008B5074B18600020FFF7E8FFDB
:109A4800054800F075FF20B9BDE80840024800F05D
:109A5800E3BD08BD702F0020199A07006CDF70471E
:109A68006DDF704772DF704773DF704774DF7047D0
:109A780075DF704776DF70477ADF70477CDF7047A5
:109A88007DDF70477FDF704786DF70478FDF704765
:109A980090DF704713DF7047A8DF7047AADF704771
:109AA800ADDF7047AEDF7047B0DF7047B1DF70479A
:109AB800B5DF704762DF704766DF704701460148CF
:109AC80001F083BEB0D7070070B518228CB0002112
:109AD8000DEB020003F008FD2823089316231F4C02
:109AE800ADF806300023CDF80E30CDF81230ADF8C1
:109AF80016300223092606222370237159230125D3
:109B0800A27063710322FE230DF10601A0198DF8DE
:109B180018508DF82D500294ADF80C606570E27005
:109B2800A371FFF7ADFFB8B9BDF8063026725A1910
:109B3800E271BDF80C200A4C134402A906AA20467B
:109B4800ADF80C30FFF78EFF30B92078FFF78EFFA5
:109B580020782946FFF788FF0CB070BD742F0020CD
:109B6800282B0020154938B50B68024613F0010070
:109B780022D0134882421ED0124A10884FF6FF7234
:109B8800904213D043F004030B601321FFF772FFD8
:109B980090B90D4DC82445F001054FF47A40A84707
:109BA800013CFAD1BDE8384003F068BA074B187891
:109BB800FFF75CFFF6E7002038BD00BF004000203B
:109BC800A8D707002A2B0020C0DA0700282B00207E
:109BD800F0B50388232B8BB0044635D80F2B04D857
:109BE800012B00F0F7800BB0F0BD103B132BFAD817
:109BF80001A252F823F000BF819C07009F9C070038
:109C0800EF9B0700819D0700C19E0700EF9B07009F
:109C1800EF9B0700EF9B0700EF9B0700EF9B0700F8
:109C2800CF9E0700EF9B0700EF9B0700EF9B070005
:109C3800EF9B0700AB9D0700EF9B0700B99D07004E
:109C4800EF9B0700679D0700503B9AB2062ACAD8C7
:109C5800062BC8D801A252F823F000BFCB9C0700FE
:109C6800E99D0700CF9E0700EF9B0700EF9B0700C9
:109C7800239D0700C99D0700964D83882B80964B2E
:109C88001B680BB101209847944928880BB0BDE8A0
:109C9800F040FFF7EDBE8F4B4FF6FF721A80904BE6
:109CA8001B685A0704D4FFF70FFF08B1FEF7B5FB8E
:109CB800894B1B68002B96D002200BB0BDE8F04002
:109CC8001847884EE288B3889A428CD1864801F0BA
:109CD80058FD0546002886D0228A04F1120103F0B7
:109CE800D1FB1822002104A803F0FEFB08238DF8FD
:109CF80010307E4B06937E4B0596CDE9073504A8B8
:109D0800238AADF8243000F07DFC00283FF46BAFC7
:109D18007548294601F059FD65E7E188F6291CD800
:109D2800CB1E9B070DD0CB1F9BB2013B5A4202F0C2
:109D3800030203F0030301F1FF3158BF5342C91A6C
:109D480089B2644B1888FFF7B3FE00283FF44BAF85
:109D58000BB0BDE8F040FEF760BBF721F1E7002249
:109D6800808804A9CDE90422FFF792FE00283FF479
:109D78003AAFFEF752FB36E7564C0223049320888D
:109D880002AB04AA42F605210593FFF789FE08B144
:109D9800FEF743FB002320881A468521FFF772FE51
:109DA800E4E74C4B00F108011888FFF761FECCE7A7
:109DB800002304A98088ADF81030FFF767FED5E7C7
:109DC800A379002B7FF40FAF424B13211888FFF7BC
:109DD80051FEBAE73F4B00211888FFF76DFEB4E744
:109DE800A379002B3FF4FFAE022B7FF4FCAE3D4D70
:109DF8002189AA8991427FF4F6AEA27B012A7FF4D9
:109E0800F2AE4FF480320592228A324EADF8182015
:109E1800628AADF81A2004F11402079201AF298A68
:109E28003088049302AA02930397FFF739FE60B9BA
:109E38003846FFF7F5F840B940F2FD133088ADF821
:109E4800143004A9FFF730FECDE6002304A93088BA
:109E5800ADF81430FFF728FE014600287FF4C3AEA2
:109E6800182204A803F040FB237D204A8DF8103007
:109E7800022B0595069218D0062B10D0012B10D175
:109E88001C4B1A881C4B1A80637DD4F81620089343
:109E9800012B099205D1194800F062FD01E0637DAC
:109EA800089304A800F0AEFB9DE6124AB4F81530FA
:109EB8001380114A1380F4E700231A461946808854
:109EC800FFF7E2FD41E70023A0881A461946FFF78D
:109ED800EDFD3AE72A2B0020E43F0020C6DA070010
:109EE80000400020EC3F0020B0D70700499F070042
:109EF800C59A0700EA3F0020E83F0020A8D70700DE
:109F08007FB50023CDF80B308DF80F300A4BADF834
:109F180006109B89ADF8083001238DF80A300DF141
:109F28000603CDE90430054B02A91888FFF7BAFDEE
:109F380007B05DF804FB00BFEC3F00202A2B00208F
:109F4800F0B5044687B000210D2202A8019103F064
:109F5800CBFA2378082B0BD1394A3A491388098858
:109F6800013B9BB21380D9B1D3B90323118023706D
:109F7800627823788DF805306021012A8DF8041065
:109F88008DF806200ED00B2A12D100F083F98DF837
:109F98000700002000F078F9042101A8FFF7B0FFBE
:109FA80007B0F0BD062B05D0082B29D0032B27D0EE
:109FB8000321F2E7E1688DF80710D4E90123080AC4
:109FC8008DF80800080C090E8DF80A10110A8DF892
:109FD8000B208DF80C10110C120E8DF80E201A0A99
:109FE8008DF80F308DF810201A0C1B0E8DF80D10FF
:109FF8008DF809008DF811208DF812300F21CCE76B
:10A00800D4E90123C3F30741D7B2C2F30726C2F349
:10A018000745DCB2C3F30720120E1B0E8DF80D1096
:10A028008DF807708DF808608DF809508DF80A20B2
:10A038008DF80B408DF80C008DF80E300B21ACE735
:10A04800E83F0020EA3F00202DE9F0413C4B94B066
:10A0580005464FF6FF721A8001204FF659632A46CB
:10A0680002A98DF80A00ADF80830FFF715FD04467F
:10A07800002861D1334B04AA03F11007164618686B
:10A088005968144603C40833BB422246F7D1A91CB9
:10A098003046FFF70FFD044600284DD101461C222B
:10A0A8000DA803F021FA9DF834300C9443F0040312
:10A0B8008DF834300223ADF80C30AB788DF80E30C3
:10A0C80003238DF80630F423CDE90A44ADF82C308B
:10A0D8002B464FF4885833F8040BADF8048003AFCF
:10A0E80001AE08AA0DA908970996FFF7D7FC044600
:10A0F80010BB01461C220DA803F0F6F918238DF8B1
:10A1080034300123ADF80C30AB788DF80E301323C2
:10A118008DF806301723CDE90A44ADF82C302B46CC
:10A1280008AA33F80C0B0C940DA9CDE90876ADF804
:10A138000480FFF7B3FC0446204614B0BDE8F08164
:10A148002A2B0020CEDA070030B5314C236813F0F3
:10A15800010585B059D12F4B18602F4801F0FAFA44
:10A16800029500F0B2F8002850D12C48FFF792FC75
:10A1780000284BD102F044FF002847D102A803F081
:10A188000FF8002842D102A9012003F013F8002893
:10A198003CD102A803F060F8002837D100F0A0FBFA
:10A1A80030B11F4800F08CFB236843F002032360A2
:10A1B800112302A88DF80430FFF752FC30BB9DF83C
:10A1C800093002A801338DF80930FFF747FCE8B9D8
:10A1D80023689B074BBF124912498A690D2248BF61
:10A1E800043192B201A8FFF749FC78B90E48FFF78D
:10A1F80043FC58B90D48FFF727FF38B9FFF764FC4F
:10A2080020B9236843F001032360002005B030BD66
:10A2180000400020E43F0020B0D70700008007007E
:10A2280004400020ADDA0700C6DA0700EC3F002042
:10A2380043690BB1C0681847704700000449054BD3
:10A248000022904218BF1946034801F0D8BA00BF4F
:10A25800E0DA07000CDB0700E82A002007B50093C6
:10A2680013460A460146034801F0CDFA03B05DF8EB
:10A2780004FB00BFE82A002013460A4601460148AD
:10A2880001F0C8BAE82A0020014B18700B2070476B
:10A2980020400020024B002218781A70704700BF37
:10A2A8002040002018DF704730B585B005461022E1
:10A2B8000C466846002103F017F9A4086846019582
:10A2C8000294FFF7EFFF05B030BD1FB50023CDE9BD
:10A2D80001330393684602230093FFF7E3FF05B0B9
:10A2E8005DF804FB4FF000534FF480521A600020D1
:10A2F80070470000014B06201B68184724400020C7
:10A308000A2803D90B38C0B2FFF7BEBF7047000058
:10A3180010B5044686B0002001F084FA014638B131
:10A32800174A1821204606B0BDE8104001F068B869
:10A338001822684603F0D8F80423124A8DF8003032
:10A34800114B116D1B68994212D1104B186800F01F
:10A358007BFF8DF80100FFF7D3FFD4E901138DF8D7
:10A368000100684698470A4800F058FA06B010BD40
:10A3780001238DF801306846D4E901139847F5E7C1
:10A3880019A3070030470020284000202C40002057
:10A39800FDA20700F0B5044687B0162200210DF192
:10A3A800020003F0A1F823788DF8003001220C2B6D
:10A3B8008DF8012000F21A819A4012F4AD7F15D170
:10A3C800022B06D00C2B40F01181894B07201B680B
:10A3D8009847D4E90113684698479DF80130012B46
:10A3E80000F00281824B05201B68FCE0062B814AA5
:10A3F8000AD0012B17D1237C1370012B44D0022BD8
:10A408007FD000231370AAE0237C1370012B6FD038
:10A41800022BF6D1784B9A6C1B6D01934FF4805345
:10A4280002920393D5E71178012917D00229E8D1C0
:10A43800013B072BCDD801A252F823F00BA507004A
:10A44800DBA30700C1A50700CBA50700DBA3070016
:10A458001DA40700DBA307006BA50700013B072B22
:10A46800B7D801A252F823F091A40700DBA3070094
:10A47800FFA40700CFA40700DBA30700F9A4070087
:10A48800DBA30700A9A40700594B03201B689847C2
:10A49800606900F0ADFCFFF733FF8DF8010098E725
:10A4A800A18A206900F0BCFCFFF72AFF524B8DF807
:10A4B8000100DA6B1B6C0293E3680192002B88D0D1
:10A4C8002069984785E74D494D4800F0F7FCFFF7AC
:10A4D80017FF01288DF801007FF47BAF002000F002
:10A4E8009DF900283FF475AF0A238DF8013070E715
:10A4F8004FF400730393404BDA6B1B6C0192029389
:10A5080067E700F0ADFC08B90823EEE762690AB90D
:10A518000323EAE7C2F30B0333B1374B37495B6DCB
:10A52800096813448B42F3D1B2F5805F01D9042343
:10A53800DBE7314B3149586D096815188D42E3D86E
:10A548005A64DA6C9A64186518632D4B1B680022EC
:10A5580001211844FFF790FE00283FF43AAF052385
:10A56800C3E700F07DFC0028CED0234DA18AD5E9B1
:10A5780014329B1A6A6C0B449342C9D8204B2F6B38
:10A588001B68206905F148021F4400F0FFFFE368DB
:10A59800A28A216906463846FFF760FE08B1E368DB
:10A5A8008EE7A38A2A6BAE641A442A632A6D029640
:10A5B80013442B6501930CE70F4B9A6C02921B6DA9
:10A5C800F8E70D4BD3E91402596C821A8A429BD1E1
:10A5D8009A6C5865002120465964DA64FFF798FEA2
:10A5E800034B1B680420984707B0F0BD02237CE7A3
:10A5F800244000202C2B0020304700202840002039
:10A608002C40002083681BB1024A182100F0F8BED4
:10A61800072070479DA3070038B50546C0B1012043
:10A62800FFF70CFE044648B900F0D4FB00F018FC14
:10A6380030B9084B00201D60FFF726FE204638BDC4
:10A648000549064800F03AFC0128F2D00324F5E752
:10A658000724F3E724400020284000202C40002055
:10A66800F8B514464FF4607205460F461E4602F0D0
:10A678006BFF18B904B1A047002006E000220121B1
:10A688002846FFF7F9FD08B10320F8BD4FF46072C2
:10A698003946304602F0F6FE23464FF460723146E2
:10A6A8002846FFF7DBFD0028E6D0EDE7F8B53C4C7F
:10A6B8003C4F23683C4E013305D13C682368013385
:10A6C80065D000250CE0201D0022582100F05EFF17
:10A6D80025683C682B1A5D425D41236801334ED0E2
:10A6E80000225821201D00F051FF2368834246D1E3
:10A6F8006368012B09D00022C32104F5187000F00B
:10A7080045FFD4F85C32834239D14FF46072002D92
:10A718003BD02349244802F0B5FE3C682348542224
:10A72800211D02F0AFFE22484FF4327204F15C01A1
:10A7380002F0A8FE7768012F31D11E4CA4F5E4750C
:10A748000FCD0FC40FCD0FC40FCD0FC495E80F0068
:10A7580084E80F0004F11005A4F5DC740FCC0FC5D4
:10A7680094E80700002386F8603286F8E232F3693D
:10A7780086F8A17285E80700C6F8A2320DE035B167
:10A7880007494FF460720848D2E73968FBE7064882
:10A798004FF46072002102F0A7FE02237360F8BD37
:10A7A80000F00700302B00203047002034470020FD
:10A7B8008C470020544A002070B50D4C05460022F5
:10A7C8005821204600F0E2FE002244F8040CC32180
:10A7D80004F5177000F0DAFE261FC4F858022A465E
:10A7E8003146044B0448BDE87040FFF739BF00BF4D
:10A7F80034470020B043002000F00700024602481A
:10A80800024B0068FFF72CBF302B0020304000209F
:10A818000149FFF7F3BF00BF00F0070038B5054650
:10A828000020FFF7C9FF044618B903492846FFF777
:10A83800E5FF204638BD00BF3047002010B5FFF7C0
:10A84800FDFC044608B1032010BDFFF72FFF20468A
:10A85800FFF7E4FF0028F7D0F5E7000010B5084C33
:10A868004FF40072FF21204602F03EFE2022002114
:10A87800A4F1240002F038FE002344F82C3C10BD5B
:10A888008C47002029DF704738B50C4D0446D5F8B1
:10A89800643378B101330FD100221821043000F05D
:10A8A80075FE21462060072205F55970BDE838403D
:10A8B800FFF7E8BF0E2038BD0820FCE700F00700CE
:10A8C80050B1064B03F11C0253F8041B40F8041B5B
:10A8D8009342F9D1002070470E20704764F30700B7
:10A8E80010B5064C00221821204600F04FFE54F8FF
:10A8F800043C1B1A5842584110BD00BF68F30700BA
:10A9080010B50A4CD4F82433D4F864231340013327
:10A9180009D04FF4FE2000F001FDC92221464FF472
:10A92800FE2000F029FD002010BD00BF30470020A8
:10A93800F8B5094F094CE41B0646E4080025A54272
:10A9480001D10020F8BD57F8353030469847002827
:10A95800F8D10135F3E700BFA8D70700B0D7070043
:10A96800F8B5094F094CE41B0646E40800250437EE
:10A97800A54201D10020F8BD57F835303046984738
:10A988000028F8D10135F3E7A8D70700B0D70700AA
:10A99800034A00230360436083601363704700BF6A
:10A9A800304700204FF44053074A5968914201BF8D
:10A9B800986800F6FF7020F47F6020F00F0018BF41
:10A9C8004FF48050704700BFDBE5B15108B5FFF781
:10A9D800E9FF054B9B69184400F6FF7020F47F607F
:10A9E80020F00F0008BD00BF304700204FF4805012
:10A9F800704700002DE9F84305460F4690469946F2
:10AA08000024012C2DD0022C01D11E4B30E0FFF781
:10AA1800DDFFB8F1000F09D11B4B1B1AAB421FD346
:10AA2800F7B9E4B234BB0020BDE8F883174B1E6ABF
:10AA3800731E5E425E41144B1B1AAB4201D3002FBA
:10AA4800EFD0DEB90134032CDBD1AB4212D217E0D0
:10AA58004FF440535E680E4BF61A18BF0126EAE71A
:10AA68000124FFF79FFFB9F1000FF1D0064B1B1A25
:10AA78009D4205D80748FFF78BFFD4E7AB42D0D2F9
:10AA88000420D1E70050070000600700304700208D
:10AA9800DBE5B1514847002090F8553013F0FB0F23
:10AAA80007D190F8643063B1836E53B10B60012015
:10AAB800704703F00202DB0705D412B190F85C304E
:10AAC800A3B90F20704790F85630002BF5D0836D4E
:10AAD800002AEAD090F85C20002AE6D0054A006EE9
:10AAE800C2F5FC22904203D80344DEE70023F5E7D1
:10AAF80004207047008007002DE9FF472F49304D9B
:10AB08008A6B304C304FDFF8D490DFF8D4A06E4613
:10AB18005C313046FDF79AFE96E80F0085E80F0095
:10AB280000212A4B39704FF447722046C9F80010AB
:10AB3800CAF80010EB6002F0D7FC254922462846E7
:10AB4800FEF71EF920B90027384604B0BDE8F087A3
:10AB58003F78002FF7D094F86C3194F800801BB33D
:10AB6800B8F1000FEFD194F87231002BEBD0DAF87E
:10AB78000020D9F800103046FDF768FE96E80F006F
:10AB880085E80F004FF4B272414604F5BA7002F03E
:10AB9800ABFC104904F5BA722846FEF7F1F8002814
:10ABA800D1D004F5BA7406E0B8F1000FCBD0A37980
:10ABB800002BC8D00834084B1C60C5E7304700207C
:10ABC800804B0020984B0020B04A0020EDAB0700D6
:10ABD800FCD807009CD907007C4B0020944B002030
:10ABE800904B00205B68DA680D4B9A4230B50AD169
:10ABF800D0E901340B48026812B90B490A681AB146
:10AC08000A4B00221A7030BD1A4612F9015B002D5A
:10AC1800FBDB23449B1A02600B600122034BF1E724
:10AC28009CD90700944B0020904B0020B04A00208C
:10AC38004FF4405210B55168114C00F50053A14231
:10AC4800586803D0031B5842584110BD884214D19C
:10AC58001178142982BF50690A4AB0FBF2F01A78B9
:10AC680098BF0020142A83BF5B69064AB3FBF2F33E
:10AC78000023C01A18BF0120E7E70020E5E700BF5E
:10AC8800DBE5B15140420F0000B591B0FEF728FE58
:10AC9800684608492022FEF756FE6A4606490748D4
:10ACA8004023FEF775FD064B01221A7011B05DF8BE
:10ACB80004FB00BF14D80700344B0020F0D807006D
:10ACC800B14A0020F0B5A3B007460C4615461E460B
:10ACD80078222023002104A8029302F005FC002317
:10ACE80003931C4B1B780BB9FFF7CEFF5CB367BB14
:10ACF80002AB0193184B00931849289B324604A8CD
:10AD0800FEF7D4FD18BB402D21D1154B214604F187
:10AD180040021C4651F8040B43F8040B9142F9D148
:10AD28000F482021FEF71BFE4023CDE900430A4AC5
:10AD3800029B0C4903A8FEF747FD002814BF052015
:10AD4800012023B0F0BD1320FBE71620F9E70A2005
:10AD5800F7E700BFB14A0020D24A0020D8D8070040
:10AD6800F24A0020344B0020F0B5ABB004460D4643
:10AD780016461F467822202300210CA8039302F0D0
:10AD8800B3FB114B1B780BB9FFF77EFF2FB12146A0
:10AD9800202204A8FEF7CCFD04AC03AB0B4F0193B3
:10ADA8000B49009733462A460CA8FEF77FFD48B9A1
:10ADB80020222146384602F0C7FBB0FA80F040094D
:10ADC8002BB0F0BD0020FBE7B14A0020B24A0020BA
:10ADD800D8D8070008B5044B986B08B1FFF78CFE6C
:10ADE800024B187008BD00BF30470020B44E002049
:10ADF80010B5044658B1B0F5007F0AD8064B0022BA
:10AE08001A70FFF72BFD054B01209C6310BD032032
:10AE1800FCE70420FAE700BFB44E002030470020CA
:10AE280070B50E4C0646E06BA36B42189A420D466D
:10AE380011D85C300A462044314602F023FBE36B0C
:10AE480004F140022B4429463046E36300F09EFBA0
:10AE58002064012070BD0320FCE700BF30470020BC
:10AE6800014B1878704700BFB44E002013B5104C42
:10AE780094F86C21B2B194F8D802B4F8DA2204F547
:10AE8800377104F5B8740B4B1B6800930A4B1B68A9
:10AE9800FFF718FF012809D1201D02B0BDE81040B6
:10AEA80000F0D6B9114610460434ECE702B010BDE4
:10AEB800984B0020904B0020944B0020204BD3E966
:10AEC8000E329A422DE9F04106460D4633D1DFF89D
:10AED800788098F800704FB1FFF778FD194B306013
:10AEE80029461868BDE8F041FFF7D6BDFFF704FE14
:10AEF80018B3FFF7BBFF0128376004462F6017D14E
:10AF0800104B29461868FFF7C7FD012804460FD1E2
:10AF180003463A4628683946FFF76CFD38B9FFF70B
:10AF280055FD88F8004030602046BDE8F0810424D3
:10AF3800FFF794FCF8E70824F6E70524F4E700BFD8
:10AF4800304700207C4B0020B44E00200123723093
:10AF5800FFF70ABF13B50446084623781146032BAA
:10AF680022D8DFE803F002050F18012002B010BD57
:10AF78000022D4F8014000F009FB844214BF0020ED
:10AF88000120F3E70A4600230146601C02B0BDE831
:10AF98001040FFF7E9BE009103464022611C0020E3
:10AFA800FFF790FE0128E9E70020DFE72DE9F043ED
:10AFB800A3B005460E461446002178221F4604A871
:10AFC80020239DF8AC800393DDF8A89002F08CFA5A
:10AFD80041220021284602F087FAB6F89430A342AD
:10AFE80082BF442303FB046393F8968085F80080AE
:10AFF800B8F1030F1CD8DFE808F009020F1F002280
:10B008004946384600F0C2FAC5F801004A463946B2
:10B018002846FFF79FFF0CE003AB01936B1C0093DE
:10B028000B494B463A4604A8FEF740FC0028EDD0F1
:10B03800002023B0BDE8F08344235C4333199A34DD
:10B04800B3F898203119681C02F01CFADEE700BF3B
:10B05800D8D807002DE9F047764B1E68A4B00446FF
:10B06800884615460A4601463046FFF76FFF002816
:10B0780000F0D38096F8557057BB4FF00109CDE921
:10B08800008923463A46314613A8FFF78FFF20B9B7
:10B09800002D40F0C7800525C1E07DB3664D4122F3
:10B0A80013A905F2A12002F0EDF97368C5F82C90F8
:10B0B8002F62AB6000224146204600F067FA5E4BE3
:10B0C800C3E909800125FFF7C9FB5B4B9C6418E0C5
:10B0D8004122002102A802F007FA07F001094122E3
:10B0E800002113A807F0020702F0FEF9B9F1000FDA
:10B0F8000BD1002F68D1002D40F085804E4B0125E3
:10B108005D61284624B0BDE8F08704F500524B4B3A
:10B118005068D6F858A09842BAD10AF5FF530AF6F3
:10B12800FF71C1F30B011F335B1A91689942AFD3CA
:10B138004FF440535968814205D118781178102886
:10B1480033D8102939D82046FFF772FD002838D1A6
:10B158000123CDE900A300222346314602A8FFF7C8
:10B1680025FF002894D0B26D002F30D0A318A8EB8B
:10B1780002020021CDE9002113A84A463146FFF713
:10B1880015FF002884D0002DB8D0B9F1000F20D1C8
:10B19800294BAA22DA62284F412213A907F2E2209A
:10B1A80002F070F97368FB6029E010291B6906D961
:10B1B80012699A427FF46CAFC5E70023F8E70022D2
:10B1C800F7E7002FC4D163E742462346D1E7002DB5
:10B1D80094D02046FFF72CFD10B11948FFF7D8FB93
:10B1E800DFF85490412202A909F5187002F04AF9D3
:10B1F800B36D67B9A522C9F82C20C9F83430002DE1
:10B208007FF458AF7AE70C4BAA22DA6252E7AC22F5
:10B21800C9F82C20C9F83430BDE745B91725FFF720
:10B228001DFB6EE705250748FFF7B2FB4BE717251F
:10B23800F9E700BF7C4B002030470020DBE5B15127
:10B2480048470020544700200122FFF703BF0000B1
:10B2580090F85430F0B50546002B34D090F85500DE
:10B26800032830D895F86E30032B45D12B7A53B389
:10B27800EB68342B42D14FF44054224A61682B8A40
:10B28800914222D143B16A69C2B1DBB205F1100122
:10B298000022D6B2B34201D8122020E0A68951F884
:10B2A800047FB74202F10102F3D12B78D3B9012808
:10B2B80015D0002814BF0F20012010E000B301288A
:10B2C800EAD02B7883B90F2009E013B16B69002B02
:10B2D800E2D101282B7803D1002B08BF1220F0BD42
:10B2E800002BE6D001280BD9074B6868DB68984229
:10B2F8008CBF01201020F2E71420F0E71120EEE7C0
:10B308000120ECE7DBE5B15130470020024AD2F8D2
:10B318000034002BFBD0704700E001400A4908B513
:10B328000223C1F80435BFF36F8FBFF34F8FC1F805
:10B338000805FFF7EBFF0023C1F80435BFF36F8F53
:10B34800BFF34F8F08BD00BF00E0014010B5094CA6
:10B358000123C4F80435BFF36F8FBFF34F8F01602B
:10B36800FFF7D4FF0023C4F80435BFF36F8FBFF392
:10B378004F8F10BD00E0014070B50E4E01231546F9
:10B38800C6F80435BFF36F8FBFF34F8F0024AC426C
:10B3980007D10023C6F80435BFF36F8FBFF34F8F73
:10B3A80070BD51F8243040F82430FFF7AFFF013466
:10B3B800EDE700BF00E001404B1C30B5DB00044660
:10B3C80012F003009BB20DD1074D2A601A44074BB7
:10B3D8001A60074B1870074B1870074B1C80074BF7
:10B3E800198030BD0720FCE7C04E0020BC4E00206D
:10B3F800BA4E0020BB4E0020B84E0020B64E0020AA
:10B408002DE9F743DFF8AC80B8F800308B420546E9
:10B418000C46174643D300260DF107008DF8076048
:10B4280000F07AF81F4B204ADFF88CC01B78BCF874
:10B4380000C010786045C1B238BF0131DBB238BFF7
:10B44800CEB2B3429DF8070005D100F089F8042078
:10B4580003B0BDE8F08316781178CBB28C4586BF6F
:10B468000133DBB20023137000F07AF80F4BF6B209
:10B478001B6843F8367003EBC60975B14CB10C4B29
:10B48800B8F800001B682246294606FB003001F088
:10B49800F9FFA9F804400020DAE72C46F9E709206B
:10B4A800D6E700BFBB4E0020BA4E0020C04E002099
:10B4B800BC4E0020B84E0020B64E002070B5104C8F
:10B4C800104D22782B789A4200D170BD0E480F4A51
:10B4D8002378126806880E4802EBC301006852F808
:10B4E8003320898803FB060090470A492278098897
:10B4F800D3B2914286BF0133DBB200232370E0E769
:10B50800BB4E0020BA4E0020B84E0020C04E00208E
:10B51800BC4E0020B64E002070B5EFF3108672B610
:10B528000C4A9468012384B993600B4B0B4DD3F8F4
:10B53800801029401160C3F88050D3F884105160FE
:10B548004FF0FF32C3F884202346037006B962B671
:10B5580070BD00BFC44E002000E100E0FC06FFBD46
:10B56800084B9A6810B55AB150B9EFF3108172B60A
:10B57800054A1C6814605C685460986001B962B63A
:10B5880010BD00BFC44E002000E100E030B53AB164
:10B598001368DB430A4D0144884204D1D84330BDC7
:10B5A8004FF0FF33F6E710F8012B5340082213F051
:10B5B800010418BF2C46013A84EA5303F7D1EBE79C
:10B5C8002083B8ED10B561B1B2FBF3F403FB14248A
:10B5D800A4B244B9C0E9001484608281C3812046C2
:10B5E80010BD0E20FCE70920FAE782B050E8022FD0
:10B5F800C188B2EB324F4FF0000317BF92B241EA55
:10B60800014142EA014104E04268B2EB324F08BF0F
:10B61800012340E80212002AE8D18DF807309DF88E
:10B628000730002B0CBF1120002002B0704737B53F
:10B6380050E8013F9DB2C48925448489A54228BFAA
:10B648002D1B0489A54202BFBFF32F8F002207E0FC
:10B65800C5EA030540E80154002CE9D14FF0010286
:10B668008DF803200193019A0A609DF8031001F0F8
:10B67800FF0321B1006810FA82F003B030BD18460C
:10B68800FBE70A884B889A4209D150E8012FC2EAA1
:10B69800024240E80123002BF7D101207047002027
:10B6A800704737B550E8023F1FFAA3F5C488A54292
:10B6B80002BFBFF32F8F00220DE0C489254484897F
:10B6C800A54228BF2D1BC3EA054540E80254002CBB
:10B6D800E8D14FF001028DF803200193019A0A6026
:10B6E8009DF8031001F0FF0321B1006800EB124040
:10B6F80003B030BD1846FBE70A884B889A4209D147
:10B7080050E8022FC2EA224240E80223002BF7D178
:10B71800012070470020704710B5034653E8000F1A
:10B7280040EA010243E8002494F0000FF6D110BD6E
:10B7380010B5034653E8002F02EA010043E800046D
:10B7480094F0000FF6D110BD0121FFF7E5BF0021ED
:10B75800FFF7EEBF10B590B1D0E9012301689B1A3D
:10B76800DBB20A60013BDBB2FF2B026802D100208A
:10B77800107110BD11684C1C14600B70F2E70E209C
:10B78800F7E773B5054600240DF107008DF807406B
:10B79800FFF7C2FE2A68696813688B420ED9591EE2
:10B7A800116013F8010CAB68EC682E8A5B1A1179EA
:10B7B800DBB2994238BF137106FB00449DF80700BD
:10B7C800FFF7CEFE204602B070BD37B50546002310
:10B7D8000DF107000C468DF80730FFF79DFE2A682B
:10B7E8001368591C1160EA68A41A2A8AB4FBF2F497
:10B7F8001C709DF80700FFF7B3FE03B030BD0B685F
:10B8080001601146184710B40468E468A4465DF85E
:10B81800044B604710B404682469A4465DF8044BDF
:10B828006047000070B550B90E4D0F4C0026641BE0
:10B838001423B4FBF3F4B44208D1002010E00368E9
:10B84800002BF1D0BDE87040DB6918472B6813B9AD
:10B8580001361435EFE7DB69284698470028F7D00A
:10B8680070BD00BFE82A0020FC2A0020014B43607D
:10B878000020704700DB070008467047002070472B
:10B88800024B1868003818BF01207047D04E0020BE
:10B8980008B50248FFF75BFF002008BDD04E002026
:10B8A80008B510461A4601F0EDFD002008BD00005D
:10B8B8002DE9F041804686B011480F4616461D46D0
:10B8C800FFF742FF0446C8B9AA0831463846FFF7D1
:10B8D80053FD0B48FFF73BFFD8F8083053B101225E
:10B8E8008DF800200C9A0592CDE90147CDE9036552
:10B8F80068469847204606B0BDE8F0811124F9E76C
:10B90800D04E00202DE9F043814687B014480E46FA
:10B9180015469846FFF718FF0446F0B90746BD429A
:10B9280015D10F48FFF713FFD9F808305BB1022291
:10B938008DF800200022CDE90126CDE90325CDF8B8
:10B94800148068469847204607B0BDE8F08306EBA8
:10B958000730FFF7E3FC0137E1E71124F3E700BF05
:10B96800D04E002029DF704728DF704770B5036884
:10B978009E6886B004460D466EB1142200216846C2
:10B9880001F0B2FDA3680593237901952BB1012B32
:10B998000DD06846B04706B070BD01238DF8003061
:10B9A80023690293E368039363690493F1E702232D
:10B9B8008DF80030E3681B030293F5E708467047EB
:10B9C80000207047024B187A003818BF01207047D2
:10B9D800DC4E0020034B187A0122B0FA80F05A742A
:10B9E80040097047DC4E002008B510461A4601F0A1
:10B9F80049FD002008BD000008B5142200210448B4
:10BA080001F072FD0348FFF7F0FD002008BD00BFFC
:10BA1800DC4E0020F04E002010B5094C094B436065
:10BA28002046FFF791FE48B901F066FB06492074ED
:10BA38001C2306484FF4EE72FFF7C4FD002010BD2A
:10BA4800DC4E00202CDB0700004F0020F04E0020C9
:10BA580038B5224C224D237A3BB922492248FFF7B8
:10BA680020FE286008B9606038BD022323722B6865
:10BA78001A7972B1012A22D028680321FFF776FFCC
:10BA880000232372636017491748BDE83840FFF761
:10BA980033BED3E90520121A142AD3E9031328BFA9
:10BAA80014229208012A014438BF01221844FFF7E2
:10BAB80059FF50B11128DFD101232372D4E7D3E90C
:10BAC80003031844FFF750FFF3E7237C002BCBD187
:10BAD800BDE83840022000F009B800BFDC4E002065
:10BAE800D84E0020D44E0020F04E002038B5234C0C
:10BAF800237A0246002B3FD0022B09D1032824D0F9
:10BB08001F4B18680023E36003793BB1012B16D063
:10BB1800637C6BBBBDE83840FFF79ABFD0E90513DB
:10BB2800CD1A142D94BF5B19143383619942EFD158
:10BB38000023022A237214BF0D21194611E003695C
:10BB48004169013303618B42F1E7E3680133082B54
:10BB580001D8E360DCE70023E3602372084B186830
:10BB68000D21FFF703FF07490748FFF7C5FDCFE79A
:10BB7800BDE8384001F0B0BA38BD00BFDC4E002047
:10BB8800D84E0020D44E0020F04E0020831E012BFA
:10BB980001D8FFF7ABBF704700F0FD03012B08D1B8
:10BBA800044B00225A74421E504250411874FFF749
:10BBB8004FBF7047DC4E002008B50648FFF7C4FDAC
:10BBC80030B9054B5B7C1BB9BDE80840FFF740BFA7
:10BBD80008BD00BFE04E0020DC4E00202DE9F341F7
:10BBE80080460D46104801A916461F46FFF71FFD5F
:10BBF8000446B0B117220021053001F075FC2D0B69
:10BC08000123237101A90848C4F80080A760E560F2
:10BC18006661FFF736FDFFF7CFFF002002B0BDE8F1
:10BC2800F0810420FAE700BFF04E00202DE9F3412F
:10BC380080460F460F4801A916461D46FFF7F7FC38
:10BC48000446A8B118220021043001F04DFC089BDD
:10BC5800A36001A9C4E903670648C4F800806561C8
:10BC6800FFF70FFDFFF7A8FF002002B0BDE8F08145
:10BC78000420FAE7F04E0020D1E90032934208BFD1
:10BC88000023016043607047436843B102689168CC
:10BC980052680B449342436004BF002343607047DB
:10BCA8002DE9F04FC9B008AA01F1400514464B78B8
:10BCB8000E781B0443EA0663CE7833438E7804314A
:10BCC80043EA06238D4244F8043BF0D11024916BDB
:10BCD80016464FEAF14383EA714383EA9123716A76
:10BCE800366852F8045F31440B444FEAB54181EAA3
:10BCF800F51181EAD50101340B44402CD363E6D118
:10BD0800D0E914E30093836D0193C36D0293036E2E
:10BD18000393436E0493836E0593C36E0693DDE924
:10BD2800057ADDE9031CDDE901592B4B009E0793D9
:10BD380074464FF00008079A08AB52F804BB53F852
:10BD4800283007924FEAF12282EAB1129B4482EA34
:10BD580071625A4427EA010301EA0C0B83EA0B03D8
:10BD68001A44524486EA05034FEA743A06EA050B78
:10BD78008AEAB40A23408AEAB45A83EA0B0308F130
:10BD880001085344B8F1400F02EB090B1344A946CC
:10BD9800BA4619D173440365009B23444365019B4C
:10BDA80033448365029B2B44C365039B5B44036652
:10BDB800049B0B444366059B63448366069B3B4494
:10BDC800C36649B0BDE8F08F674635468C462646BF
:10BDD80059461C46AFE700BF38DB070030B5E0B175
:10BDE8000F4A104900240025C0E91245C0E9141281
:10BDF8000D4C0E4A0E4DC0E916420E4AC0E91852C3
:10BE08000D4A826602F17452A2F523020023A2F6BB
:10BE180092420364C266184630BD0E20FCE700BF9C
:10BE280085AE67BB67E6096A72F36E3C3AF54FA5C3
:10BE38007F520E518C68059BABD9831F70B50C4699
:10BE480040B12AB9A5180026AC4205D1002070BD22
:10BE58000029F7D10E20FAE7036C14F8012BC2541D
:10BE68000133402B0364EFD10146FFF719FFD0E9F6
:10BE7800123213F5007342F10002C0E9123206646F
:10BE8800E2E7F8B50D4617460446002875D00029A4
:10BE980073D0066C8022731C372EA25518443ED8E6
:10BEA800C6F13702002101F01FFBD4E91223082153
:10BEB800E6FB0123C4E9122312BAE26323FA01F272
:10BEC80084F83B3084F83A201A0C1B0E214684F87B
:10BED800392084F838302046FFF7E2FE691E6FB338
:10BEE8000023E26EDA4001F8012FA26EDA400A71EF
:10BEF800626EDA400A72226EDA400A73E26DDA4044
:10BF08000A74A26DDA400A75626DDA400A76226D0B
:10BF1800DA400833202B0A77E3D10020F8BD402B04
:10BF2800C6F13F024FF0000188BF002201F0DCFAA1
:10BF380021462046FFF7B4FE3822B3E71823226DC6
:10BF4800DA4001F8012F626DDA400A71A26DDA4019
:10BF58000A72E26DDA400A73226EDA400A74626E7F
:10BF6800DA400A75A26EDA400A76E26EDA40083BD9
:10BF780013F1080F0A77E2D1CFE70E20CEE78B182E
:10BF880002448B4204D013F8010D02F8010DF8E7C2
:10BF98007047000000000000C3F10803DB0070B523
:10BFA8000133002403A500BF5B1920C940CAAD199D
:10BFB80020C0184720C940CA754120C020C940CABE
:10BFC800754120C020C940CA754120C020C940CA57
:10BFD800754120C020C940CA754120C020C940CA47
:10BFE800754120C020C940CA754120C0644120461F
:10BFF80070BD00BF00000000C3F10803DB0070B58E
:10C008000133002403A500BF5B1920C940CAAD1B3A
:10C0180020C0184720C940CAB54120C020C940CA1D
:10C02800B54120C020C940CAB54120C020C940CA76
:10C03800B54120C020C940CAB54120C020C940CA66
:10C04800B54120C020C940CAB54120C06441B4FAF6
:10C0580084F0400970BD00BF2DE9F04F08B4F8CA5C
:10C0680004B451F8042BA3FB028940F8048B4FF069
:10C07800000AE4FB629A4FF0000BE5FB62AB4FF05D
:10C08800000CE6FB62BC4FF0000EE7FB62CE51F8F5
:10C09800042B4FF00008E3FB628940F8048BE4FBB3
:10C0A800629AE5FB62ABE6FB62BCE7FB62CE51F845
:10C0B800042B4FF00008E3FB628940F8048BE4FB93
:10C0C800629AE5FB62ABE6FB62BCE7FB62CE51F825
:10C0D800042B4FF00008E3FB628940F8048BE4FB73
:10C0E800629AE5FB62ABE6FB62BCE7FB62CE51F805
:10C0F800042B4FF00008E3FB628940F8048BE4FB53
:10C10800629AE5FB62ABE6FB62BCE7FB62CE40F8F5
:10C11800049B40F804AB40F804BB40F804CB40F85B
:10C1280004EB0CBC052B00F01E810C68A0F1140078
:10C13800A1F11401A2F1140252F804EB4FF000052A
:10C1480050F8046BE4FB6E5652F804EB50F8047B8D
:10C15800E4FB6E6752F804EB50F8048BE4FB6E784E
:10C1680052F804EB50F8049BE4FB6E8952F804EB98
:10C1780050F804ABE4FB6E9AA0F1140052F8044B9B
:10C1880051F804EB4FF0000CE4FB6EC540F804CB0B
:10C1980051F804EBE4FB6E5640F8045B51F804EBED
:10C1A800E4FB6E6740F8046B51F804EBE4FB6E782F
:10C1B80040F8047B51F804EBE4FB6E8940F8048BEB
:10C1C80051F804EBE4FB6E9AA0E80006062B00F099
:10C1D800CA800C68A0F11800A1F11801A2F1180298
:10C1E80052F804EB4FF0000550F8046BE4FB6E5670
:10C1F80052F804EB50F8047BE4FB6E6752F804EB4A
:10C2080050F8048BE4FB6E7852F804EB50F8049B6A
:10C21800E4FB6E8952F804EB50F804ABE4FB6E9A29
:10C2280052F804EB50F804BBE4FB6EABA0F1180025
:10C2380052F8044B51F804EB4FF0000CE4FB6EC5C8
:10C2480040F804CB51F804EBE4FB6E5640F8045B6D
:10C2580051F804EBE4FB6E6740F8046B51F804EB0B
:10C26800E4FB6E7840F8047B51F804EBE4FB6E893C
:10C2780040F8048B51F804EBE4FB6E9A40F8049BF9
:10C2880051F804EBE4FB6EABA0E8000C072B6AD076
:10C2980008B40C68A0F11C00A1F11C01A2F11C0259
:10C2A80052F804EB4FF0000550F8046BE4FB6E56AF
:10C2B80052F804EB50F8047BE4FB6E6752F804EB89
:10C2C80050F8048BE4FB6E7852F804EB50F8049BAA
:10C2D800E4FB6E8952F804EB50F804ABE4FB6E9A69
:10C2E80052F804EB50F804BBE4FB6EAB52F804EBD5
:10C2F80050F804CBE4FB6EBCA0F11C0052F8044BD0
:10C3080051F804EB4FF00003E4FB6E3540F8043BB2
:10C3180051F804EBE4FB6E5640F8045B51F804EB6B
:10C32800E4FB6E6740F8046B51F804EBE4FB6E78AD
:10C3380040F8047B51F804EBE4FB6E8940F8048B69
:10C3480051F804EBE4FB6E9A40F8049B51F804EBB7
:10C35800E4FB6EAB40F804AB51F804EBE4FB6EBCB5
:10C36800A0E8001808BCBDE8F08F002210B51446FC
:10C3780053B28B4204DA1BB2013240F82340F7E78C
:10C3880010BD10B500231A465CB28C4204DA50F88E
:10C39800244001332243F7E7B2FA82F0400910BD86
:10C3A8004A11012350F8220001F01F0103FA01F19C
:10C3B80008407047013949B2002909DA013149B208
:10C3C800A1B101F18043013B50F82330002004E083
:10C3D80050F82130002BEDD0F0E713B15B080130A5
:10C3E800FBE7013900EB411108B270470846704776
:10C3F80030B5002463B2934206DA1BB2013451F817
:10C40800235040F82350F5E730BD10B5013A52B239
:10C41800002A0ADB13B250F8234051F823309C421B
:10C4280005D8F3D24FF0FF3010BD002010BD012019
:10C4380010BD00EB81010023884206D251F8042D7B
:10C4480043EA52030B60D307F6E7704770B59DF9CE
:10C4580010401E4623460546FFF79EFD30B922468A
:10C4680029463046FFF7D1FF012807D02346324638
:10C4780029462846BDE87040FFF7BEBD70BD70B5BF
:10C488009DF910401E4623460546FFF7B5FD38B115
:10C498002346324629462846BDE87040FFF77CBD52
:10C4A80070BD00002DE9F04FB5B004AD9DF9F8401E
:10C4B8001F46804623462846FFF7CEFD24AB21467B
:10C4C800384602930395FFF775FF494BC0EB84107C
:10C4D80005B22B40002BBEBF03F1FF3363F01F03EF
:10C4E8000133202695FBF6F676B20FFA83F914A8E5
:10C4F8003146FFF73AFFB9F1000F30B214DD14AB43
:10C50800002203EB8000C9F120061346A34212D291
:10C5180057F8231001FA09FE4EEA020240F82320D8
:10C5280021FA06F20133F1E714AB2246394603EB50
:10C538008000FFF75DFF27B27B00019314AB03EB8C
:10C54800870704F1FF3934AB012603EB8909002D75
:10C5580042DB34AB0022C6F10100964603EB860AA3
:10C5680003EB8000019B51B299421BDA0FFA81FC60
:10C578005AF8C83C53F82CB034AB03EB810151F89E
:10C58800803CC3EB0B03CEEB03039B4504D034BFC5
:10C598004FF0010E4FF0000E50F8C81C013241F860
:10C5A8002C30DFE7CEEB06035E42214614A85E413D
:10C5B800FFF73FFF34AB03EB8403214653F8802C8D
:10C5C80059F8803C384643EAC273013D49F8803C3B
:10C5D8002DB2FFF72EFFBAE734AB03EB86062246EF
:10C5E80056F8C81C4046FFF703FF35B0BDE8F08F8A
:10C5F8001F00008030B51C4691B0054693F9003005
:10C608006846FFF729FDD4F8AC30694628469847B4
:10C6180011B030BD13460A46FFF7ECBF2DE9F047CD
:10C6280093F9006092B00446894610463146154693
:10C638009846FFF7A6FE002840F0988042464946F3
:10C6480002A8FFF7E7FF434602AA21460AA8FFF718
:10C65800D1FF02A908464246FFF7DCFF43462A46B7
:10C6680049464846FFF7C6FF08F1040742462946EF
:10C678002846FFF7CFFF3B462A462146204600962C
:10C68800FFF7E4FE3B462A46294628460096FFF770
:10C69800DDFE3B462A46214628460096FFF7EFFE78
:10C6A80043462A4621462046FFF7A4FF3B4622463A
:10C6B800214628460096FFF7C9FE3B4600962A46C3
:10C6C80021462046FFF7C2FE2368DB0714D5334610
:10C6D8003A4621462046FFF75FFC3146824620460F
:10C6E800FFF7A7FE06F18043013B54F8230040EA18
:10C6F800CA7044F8230003E031462046FFF799FE4C
:10C70800424621462846FFF785FF3B460AAA2946A6
:10C7180028460096FFF7B3FE3B460AAA2946284654
:10C728000096FFF7ACFE0AA908463B462A46009643
:10C73800FFF7A5FE43460AAA21462046FFF75AFFFF
:10C7480002AA3B46104621460096FFF798FE32465D
:10C7580029462046FFF74CFE324649462846FFF751
:10C7680047FE324602A94846FFF742FE12B0BDE82E
:10C77800F0872DE9F04115468AB004468846202204
:10C78800002102A800F0B0FE2E1D95F900700323C9
:10C798002A46414620460293FFF73CFF334602AA49
:10C7A800214620460097FFF76AFE2B46424621465F
:10C7B8002046FFF71FFF0097334605F18402214604
:10C7C8002046FFF743FE0AB0BDE8F081F0B5082225
:10C7D80089B00C460646FFF70BFECB6A03930B6B3A
:10C7E80004934B6B05938B6B0693CB6B07930027D6
:10C7F80008236A4669466846029701970097FFF73B
:10C80800CBFB082305466A4631463046FFF7C4FB92
:10C81800236B0393636B0493A36B0593E36B0693FA
:10C82800054408236A46694668460797FFF7B4FB3C
:10C83800082305446A4631463046FFF7ADFB236AB4
:10C848000093636A0193A36A0293A36B0693E36B55
:10C858000793054408236A463146304605970497EE
:10C868000397FFF799FB636A0093A36A0193E36A4E
:10C87800A26B0293636B039304920693E26B236AA1
:10C888000592054407936A46082331463046FFF768
:10C8980083FBE36A0093236B0193636B0293236A20
:10C8A8000693A36A0793054408236A46314630462F
:10C8B800059704970397FFF79FFB236B0093636B20
:10C8C8000193A36B0293E36B0393636A0693E36A92
:10C8D80007932D1A08236A46314630460597049770
:10C8E800FFF78AFB636B0093A36B0193E36B0293DF
:10C8F800236A0393636A0493A36A0593236B0793DC
:10C908002D1A08236A46314630460697FFF774FB0E
:10C91800A36B0093E36B0193636A0393A36A049385
:10C92800E36A0593636B07932D1A08236A46314619
:10C93800304602970697FFF75FFB2D1A16D5082396
:10C948000D4A31463046FFF727FB2D18F7D410E083
:10C95800082231460848FFF758FD012809D0082366
:10C96800054A31463046FFF747FB2D1A002DEFD018
:10C97800F5E709B0F0BD00BF3CDC0700F0B515468F
:10C9880089B01C4607460E461A4629466846FFF7F0
:10C9980041FE23466A4639463846FFF72BFE2346B2
:10C9A8002A4669466846FFF725FE23466A46314609
:10C9B8003046FFF71FFE09B0F0BD2DE9F0438BB0FC
:10C9C8001446129D15F9046B00961F468046894649
:10C9D8002B460246214602A8FFF751FD02A9129AEA
:10C9E8000846FFF717FE129B02AA41464046FFF78A
:10C9F80001FE129B02AA21462046FFF7FBFD2B46AB
:10CA08004A46394638460096FFF739FD129A3946A4
:10CA180002A8FFF7FFFD02A92B46424608460096EA
:10CA2800FFF72DFD02A92B46224608460096FFF780
:10CA380026FD2B464246214620460096FFF71FFD5D
:10CA4800129B224649464846FFF7D4FD2B4602AAC8
:10CA5800414620460096FFF712FD129B22463946B2
:10CA68003846FFF7C7FD2B464A46394638460096F2
:10CA7800FFF705FD324602A92046FFF7B9FC0BB0C7
:10CA8800BDE8F0832DE9F047B3F902508946082440
:10CA9800E91D1F3591FBF4F42021944295FBF1F533
:10CAA8004FFA85F828BF14461F4641460646FFF749
:10CAB8005CFC22464946FFF762FAB7F90230E40007
:10CAC8009C4220D9E41A06EB85010023C4F120001A
:10CAD8008E4208D251F8042D22FA04F52B430B603C
:10CAE80002FA00F3F4E72437424631463846FFF7A6
:10CAF8008CFC012807D043463A4631463046BDE80B
:10CB0800F047FFF779BABDE8F08770B5036813F00E
:10CB180001050646144605D013460A460146FFF7A6
:10CB28003BFA054621463046FFF783FC45B104F140
:10CB38008042013A56F8223043F0004346F822304A
:10CB480070BDF0B50F46A1B00646194638461546E1
:10CB58001C46FFF716FC20B121463046FFF705FCBE
:10CB680074E0224639466846FFF742FC22462946C9
:10CB780008A8FFF73DFC214610A8FFF7F6FB0123A4
:10CB8800214618A81093FFF7F0FB224608A968462B
:10CB9800FFF73BFC002854D0009BDA0704D4214659
:10CBA8006846FFF746FC26E0089BDB0704D42146CD
:10CBB80008A8FFF73EFC3EE0002823461FDD08AA30
:10CBC80069466846FFF718FA21466846FFF731FCC0
:10CBD800224618A910A8FFF718FC002805DA10A9A2
:10CBE80023462A460846FFF7D7F910A9234618AA6C
:10CBF8000846FFF701FA2246294610A81EE008A9B0
:10CC08006A460846FFF7F8F9214608A8FFF711FC1D
:10CC1800224610A918A8FFF7F8FB002805DA18A97A
:10CC280023462A460846FFF7B7F918A9234610AA4B
:10CC38000846FFF7E1F92246294618A8FFF765FFDD
:10CC4800A3E7224610A93046FFF7D2FB21B0F0BD7A
:10CC58000048704738DC07002DE9F04FEDB01F465B
:10CC6800DDF8D8810590B8F9026098F900402023D2
:10CC78001F3696FBF3F676B206F1FF3924AB002592
:10CC880043F829506CAB03EB89034CA88A469346BA
:10CC9800394698F9012043F8805C43F8605CFFF757
:10CCA8006EF998F9012054A8B918FFF768F92146D8
:10CCB8004CA8FFF766FB0746002840F0378121465D
:10CCC80054A8FFF75EFB0390002840F0318108F17B
:10CCD800240332464CA918460293FFF796FB012815
:10CCE80040F02881324654A90298FFF78EFB0128AC
:10CCF800069040F01F811CAD0CAF3346029A54A930
:10CD08002846FFF71EFF039B47F829305A4651462D
:10CD180038464346FFF7B6FE39463846029B00962A
:10CD28002A46FFF7BFFB0DF5B879029B00962A4605
:10CD38004CA914A8FFF7B6FB484622460599FFF709
:10CD480057FBA30009EB030A0793059BA100591899
:10CD580008F1440B50462246FFF74AFB5946224643
:10CD680034A8FFF745FBA3000BEB030122463CA8C0
:10CD7800FFF73EFB08F10403494634AA284600940D
:10CD88000493FFF77CFB53464A463CA934A8CDF8E8
:10CD98000080FFF712FE2346049A29462846FFF72B
:10CDA800D0FE2A46514648464346FFF7E7FD039B17
:10CDB80008933146059B0A933846CDF824B0CDF840
:10CDC8002C90FFF7F7FA3146814614A8FFF7F2FADC
:10CDD8004845B8BF48461FFA80F909F1FF3B0FFAEA
:10CDE8008BFB59463846FFF7DBFA5946071C14A84F
:10CDF80018BF0127FFF7D4FA002814BF0223002325
:10CE08001F430DF1200A22465AF8277024A83946F4
:10CE1800FFF7EEFA0DF1B00BA300F91822465846B9
:10CE2800FFF7E6FA21462846FFF79FFAA9F102091B
:10CE3800069B2B600FFA89F90DF1900AB9F1000FE2
:10CE480045DB43462A46D8F8A47059465046B847A9
:10CE580049460CA8FFF7A4FA4946071C14A818BFAE
:10CE68000127FFF79DFA002814BF022300231F4360
:10CE780008AB53F827702FB32246394634A8FFF77A
:10CE8800B7FA079B2246F9183CA8FFF7B1FA4346C0
:10CE98002A463CA934A8FFF771FD049B009434AAE4
:10CEA800514644A8FFF7EBFA5B4652463CA934A822
:10CEB800CDF80080FFF781FD434644AA294628465D
:10CEC800FFF798FB09F1FF390FFA89F9B6E723460E
:10CED800049A29462846FFF734FE43462A4659460F
:10CEE8005046FFF74BFD324651460298FFF78DFA40
:10CEF800012805D03346029A51465046FFF77CF880
:10CF0800013C64B20020002C0CDB23B26CAA02EBBB
:10CF180083015AF8232051F8803C013C53401843C0
:10CF280064B2F0E7B0FA80F0400904E0284602E075
:10CF3800384600E003986DB0BDE8F08F10DF704709
:10CF480011DF704713B5044609496846FEF794FE99
:10CF5800019808B902B010BDD0E9003120469847C1
:10CF680018B16846FEF790FEF2E71120F2E700BF1D
:10CF780000DD070013B5044607496846FEF77CFE46
:10CF8800019B0BB902B010BD2046D3E900219047A0
:10CF98006846FEF779FEF3E7F4DC0700084B9A6869
:10CFA80022B11A6822F480021A607047054B4FF4C8
:10CFB8008002C3F88020BFF34F8FBFF36F8F704795
:10CFC800C44E002000E100E00B4991F81623EC2341
:10CFD80052091341DB0706D5084B9A683AB94FF452
:10CFE80080030B60704742F20200FBF716BA1A681A
:10CFF80042F480021A60704700E100E0C44E00204D
:10D00800F7B5194F3C786CBB184E01252046357092
:10D01800FFF798FF112821D02046FFF7ABFF144BEC
:10D028008DF80340186801900DF10300FEF774FABB
:10D03800104901A8FFF782FF0446B0FA80F04009C2
:10D0480038709DF80300FEF78BFA44B90A4B347028
:10D058001C70FFF7B9FF2846FFF78CFF0024204615
:10D0680003B0F0BD0824FAE7DE500020DC500020B1
:10D078000CDD07001D840700DD500020F7B5144EB5
:10D0880033781BB3134D01202870FFF75BFF11287D
:10D0980018D00220FFF76EFF00270DF107008DF86A
:10D0A8000770FEF739FAFFF74BFF04469DF80700B3
:10D0B8003770FEF755FA34B903202C70FFF76EFF6E
:10D0C800FFF758FF0024204603B0F0BD0824FAE714
:10D0D800DE500020DC500020054B1B7833B1054B97
:10D0E8001B780BB1FFF7CABFFFF78ABF082070474C
:10D0F800DC500020DE500020014B1878704700BF3C
:10D10800DE50002007B508496846FEF7B5FD019BCB
:10D1180013B903B05DF804FBD3E9002090476846D3
:10D12800FEF7B2FDF3E700BFE8DC0700FFF7EABF50
:10D1380060DF704769DF704761DF704730B5134DB6
:10D14800ADF5017D4FF4FA740DF1020103A8ADF8B5
:10D158000240FFF7F1FF70B9294601A8FEF78CFDE0
:10D16800029B002BF0D003A8D3E90021904701A827
:10D17800FEF78AFDF4E7052805D00DF5017DBDE829
:10D188003040FBF74AB90DF5017D30BD10DD0700D1
:10D19800024B1B780BB1FFF7D1BF7047DF5000205F
:10D1A80018B1034B0360002070470E20704700BF82
:10D1B800E82A0020F0B5074685B00D46002947D07B
:10D1C8000024244A0A60CDE90144012606238DF88B
:10D1D800040001A92020ADF8083003948DF80660FA
:10D1E800FFF7A8FF2A68039401A94020CDE901446C
:10D1F8008DF80560FFF79EFFF7232A68039401A9BD
:10D208002320CDE90144ADF806308DF80470FFF70E
:10D2180091FF2A68039401A93046CDE901448DF8AD
:10D228000460FFF787FF4FF4B0632A68019301A9F0
:10D23800A120CDE90244FFF77DFF2A68039401A9E4
:10D24800A020CDE90144FFF775FF204605B0F0BDE9
:10D258000E20FBE7E82A002008B5FFF769FF10B9A0
:10D26800014B01221A7008BDDF5000204BDF7047C8
:10D278001FB50E4C01A8FFF7F9FF70B9214602A8A7
:10D28800FEF7FAFC039B002BF4D00198D3E90021A8
:10D29800904702A8FEF7F8FCF4E7052804D004B08C
:10D2A800BDE81040FBF7B9B804B010BD1CDD07009D
:10D2B80038B1054B0360054B43600123037200201E
:10D2C80070470E20704700BFFFD20700D9D2070071
:10D2D80069B10B78022B0CD1022804D003280CBFAB
:10D2E80011200820704703230B70002070470E2080
:10D2F80070470820704710B50C4681B10B78012B98
:10D3080006D00ED9033B012B8CBF1120082010BD7D
:10D31800FDF7BAFA0028FAD102232370F7E70E20A6
:10D32800F5E70820F3E7000070B5134B134A0C210A
:10D33800D21AB2FBF1F2816911F8025C04462DB9E8
:10D3480000690021914204D1012010E04FF0FF3024
:10D35800F7E71E68AE420CD1461C02D05E688642D2
:10D3680007D19D68D4E90001D4E90223A8472060C9
:10D3780070BD01310C33E5E7C4D70700D0D70700EB
:10D388001EF0040F0CBFEFF30880EFF30980FFF7DE
:10D39800CBBF00BF42F63831C2F20001096800F085
:10D3A80000B880B50B468DF803000DF1030001218C
:10D3B800012200F01FF89DF80310002808BF411E45
:10D3C800084608BD38B542F63831C2F200010446B5
:10D3D8000D6800F027F802462846214600F0F0F8CC
:10D3E80001301EBF0A20BDE83840FFF7D3BF4FF019
:10D3F800FF3038BDF8B51D4617460C460646184698
:10D4080000F0C6F8002803D407FB04F2A24201D2B8
:10D418000020F8BD2846314600F0D2F8B0FBF4F001
:10D42800F8BD0000411C82070CD010F8012B3AB35C
:10D43800820707D010F8012B12B3820702D010F828
:10D44800012BEAB14FF0013C50F8042BCCFA52F30F
:10D458007BB950F8042BCCFA52F353B950F8042B8B
:10D46800CCFA52F32BB950F8042BCCFA52F3002B18
:10D47800EAD004381BBAB3FA83F300EBD3000130C7
:10D48800401A70475AB3844690EA01039B071FD19C
:10D49800830707D011F8013B00F8013B013AF7D1A7
:10D4A8001CE08446203A09D32DE9F007B1E8F807D3
:10D4B800A0E8F807203AF9D2BDE8F0071C3205D4F5
:10D4C80051F8043B40F8043B043AF9D2043205D041
:10D4D80011F8013B00F8013B013AF9D16046704769
:10D4E80000220B0011001A0084465AB3830704D0A7
:10D4F80000F8011B013AF9D124E0C9B241EA01213F
:10D5080041EA0141202A11D3203A2DE9F0030B46C4
:10D518000C460D460E460F4688468946A0E8FA0393
:10D52800203AFBD2BDE8F00320320BD0042A05D301
:10D5380040F8041B043A05D0042AF9D200F8011B6C
:10D54800013AFBD160467047042A08D350F804CB4F
:10D558000B689C4506D1043A0431032AF6D8A2B1D7
:10D56800D0F800C0086880EA0C0191FAA1F1B1FA7C
:10D5780081F1B2EBD10F08D901F038012CFA01F290
:10D58800C840C0B2D1B2081A7047002070470000E6
:10D59800084B1B6883420AD0074B1B68834206D09E
:10D5A800064B1B68181A18BF4FF0FF307047002051
:10D5B800704700BF3C2B0020382B0020342B002064
:10D5C800006800F0D3B800BF1348144A032110B50F
:10D5D8000161134C41614FF4806182610023C46191
:10D5E8000162104C836210214362C3620266446682
:10D5F80081660367C3664367BFF35F8F0A4BA3F176
:10D60800100E9C46ACEB030213F8011D81547345C0
:10D61800F8D1BFF35F8F10BDFC54002028DD070050
:10D62800FC500020EC50002044DD07002DE9F843B1
:10D63800C568D0F80890A9EB050890450446164639
:10D6480009D940682844FFF71DFFBFF35F8F3544B1
:10D65800E560BDE8F8834068284435440F464246F3
:10D66800A5EB0905FFF70EFF60682A4607EB0801DE
:10D67800FFF708FFBFF35F8FE560BDE8F88300BFE1
:10D688002DE9F8430646D0E90204894617464FF0CB
:10D69800000833699C4203F1FF3228BF03F1FF33CE
:10D6A800A0EB04052ABF1B18131B1B1BBD4228BF78
:10D6B8003D469D42706828BF1D46494620442A467B
:10D6C800FFF7E0FEB0682C44A844A9447F1BA042A1
:10D6D80008BF0024BFF35F8FF460002FD9D1404604
:10D6E800BDE8F88338B5204B00EB400403EBC40ECB
:10D6F8000130DEF82C4000EB4000012C8C4615462A
:10D7080003EBC00005D0022C2AD0B4B10024204677
:10D7180038BDDEF82830DEF82440A3429CBFDEF88E
:10D7280020105B18013B1C1B944228BF144622465C
:10D738006146FFF77BFF204638BDDEF82830DEF86B
:10D74800242093429CBFDEF820105B18013B9A1AF4
:10D758009542DCD82A466146FFF768FF2C46D6E793
:10D76800BDE83840FFF78CBFFC540020F8B50B4BE0
:10D778001B7804460D4616466BB1EFF311874FF040
:10D78800200181F31188324629462046FFF7AAFF77
:10D7980087F31188F8BDFFF717FFEEE7FC54002068
:08D7A80051A107006D9B070071
:10D7B000942F0020D03F0020E13F00209C2F00202C
:04D7C000F400000071
:0CD7C4000000000003000000B9D20700C4
:08D7D000D99B070000000000D6
:08D7D800DDB9070000000000AC
:08D7E000A1BB070000000000DE
:10D7E80099D107000000000079D20700000000006E
:08D7F80095BB070000000000D2
:10D80000000000000000000039A207000010000026
:04D81000000008000C
:10D8140023C4DB8028147B7DCE85494AC122C2FF04
:10D82400524233C1EC736B72695EB24F0383CAF424
:10D83400713BBF1B10EB4851DA0660C2E3AF1F39DE
:10D844008569E3AB45F45B0D121BCAE462CF8A3EE3
:10D8540053656375726520626F6F746C6F61646584
:10D8640072207374617274656400496E73696465CF
:10D87400206D61696E004166746572206D61696E28
:10D884002C2073686F756C64206E657665722062F7
:10D894006520726561636865642E000D0E0F1000CB
:10D8A4001D890700C38807000B8E07007B8E0700C5
:10D8B4009B8E07000F880700CD870700A78D070000
:10D8C4000000000000000100000000000338FDD843
:10D8D40070470000A39907009D9907007D990700F0
:10D8E400200000007800000000000000480028002C
:10D8F4000020400059CC0700010017000400FCFF81
:10D90400680100006CD90700020017000400FCFF46
:10D91400AC0100002CD9070000000000000000004A
:10D9240000000000000000000100070000000000EB
:10D93400680100006CD9070002000100000000002B
:10D9440001000000000000000300050001000000C9
:10D954004200000000000000000000000000000081
:10D964000000000000000000010011000100FFFFA2
:10D974000100000000000000020017000200FEFF8A
:10D98400640100009CD907000000000000000000B2
:10D994000000000000000000010011000400FCFF72
:10D9A4000400000000000000020011000400FCFF5D
:10D9B4000400000000000000030021000400FCFF3C
:10D9C4000400100000000000040011000100FFFF2B
:10D9D4000100000000000000050011000200FEFF2D
:10D9E4000400000000000000060011000400FCFF19
:10D9F4000400000000000000070011000400FCFF08
:10DA04000400000000000000080017000200FEFFF0
:10DA1400240000007CDA0700090010000100FFFF69
:10DA240001000000ACDA07000A0027000200FEFF34
:10DA3400440003004CDA070000000000000000006E
:10DA440000000000000000000100010000000000D0
:10DA540001000000000000000200050001000000B9
:10DA64004200000000000000000000000000000070
:10DA740000000000000000000100010000000000A0
:10DA84000100000000000000020005000100000089
:10DA94002200000000000000000000000000000060
:10DAA40000000000000000000044617368706F64AF
:10DAB4005F4446555F320000000000000338FDD883
